:020000040800F2
:10000000B00B0020D1010008690E00088D0D00081A
:10001000650E0008B7030008252500080000000051
:100020000000000000000000000000003112000885
:10003000F50A0008000000001D100008F521000866
:10004000EB010008EB010008EB010008EB010008E0
:10005000EB010008EB010008EB010008EB010008D0
:10006000EB010008EB010008EB010008EB010008C0
:10007000EB010008EB010008EB010008EB010008B0
:10008000EB010008EB010008EB010008EB010008A0
:10009000F9240008EB010008EB010008EB0100085F
:1000A000EB010008EB010008EB010008EB01000880
:1000B000EB010008EB010008EB010008EB01000870
:1000C000EB010008EB010008EB010008EB01000860
:1000D000EB010008EB010008EB010008EB01000850
:1000E000EB010008EB010008FD22000800F002F817
:1000F00000F05AF80AA090E8000C82448344AAF168
:100100000107DA4501D100F04FF8AFF2090EBAE865
:100110000F0013F0010F18BFFB1A43F0010318473B
:1001200020340000403400000A444FF0000C10F866
:10013000013B13F0070408BF10F8014B1D1108BF65
:1001400010F8015B641E05D010F8016B641E01F805
:10015000016BF9D113F0080F1EBF10F8014BAD1C55
:100160000C1B09D16D1E58BF01F801CBFAD505E073
:1001700014F8016B01F8016B6D1EF9D59142D6D3CD
:10018000704700000023002400250026103A28BFF5
:1001900078C1FBD8520728BF30C148BF0B607047F9
:1001A0001FB51FBD10B510BD00F0CBF81146FFF70D
:1001B000F7FF02F0B3FB00F0E9F803B4FFF7F2FF3A
:1001C00003BC00F0F1F80000401EFDD170470000B4
:1001D0000948804709480047FEE7FEE7FEE7FEE7DB
:1001E000FEE7FEE7FEE7FEE7FEE7FEE70448054917
:1001F000054A064B704700009D220008ED000008EC
:10020000B0050020B00B0020B0070020B007002090
:1002100053EA020C00F069802DE9F04B4FF0000624
:10022000002B1FBFB3FA83F503FA05F424FA05F691
:100230005E4012BF1643B2FA82F502FA05F4C5F128
:1002400020051EBF22FA05FC44EA0C04203556EABC
:10025000044C4FEA144418BF641C4FF000084FF0E0
:100260000009904271EB030C39D3002919BFB1FA90
:1002700081F701FA07F6B0FA80F700FA07F6C7F13E
:1002800020071EBF20FA07FC46EA0C062037B6FB03
:10029000F4FCA7EB0507103F07F01F0BCBF120067E
:1002A0000CFA0BFB2CFA06F644BFB3460026202FAF
:1002B000A4BF5E464FF0000B5BEA060C08BF4FF090
:1002C000010B19EB0B09ABFB027C48EB0608C01BCA
:1002D00006FB02CC0BFB03CC71EB0C01C1E70B4618
:1002E000024641464846BDE8F08B13B54FF000008A
:1002F0004FF00001AFF30080BDE81C40704710B51F
:10030000431C02E010F8011B71B18107FAD14FF0D4
:10031000013202C88C1A8C4314EAC211F9D0C01AF7
:100320000A0603D0C01E10BDC01A10BD0A0401D0B9
:10033000801E10BD0902FCD0401E10BD70477047E2
:100340007047754600F02CF8AE46050069465346E6
:1003500020F00700854618B020B5FFF747FFBDE83D
:1003600020404FF000064FF000074FF000084FF01C
:10037000000B21F00701AC46ACE8C009ACE8C009AD
:10038000ACE8C009ACE8C0098D46704710B504461A
:10039000AFF300802046BDE81040FFF70EBF00001D
:1003A000004870474C05002001491820ABBEFEE70D
:1003B00026000200704700BFFEE70146CAB20B12DA
:1003C00043EA02207047000008B50020009022E1B7
:1003D0009748008800F00F0096490870084600789A
:1003E00000287CD194480068944908800846008819
:1003F00000F03000924908809048008800F4405096
:100400008E4908808C4909684BF6BF7201EA0200E8
:1004100080F4005080F0200040F4004141F0800161
:10042000854A11608248008800F0100090BB104699
:10043000006848F60F7108401146086000F0A8FCFB
:100440007D4909684BF6BF7201EA02007B490988C1
:1004500001F4805109B180F480507849098801F491
:10046000005109B180F400507549098801F010016C
:1004700009B180F010007249098801F0200109B12A
:1004800080F0200081B241F4004141F080016A4ACD
:10049000116008BDFFE76848006880B20090BDF8B1
:1004A000000000F40060B0B363480068C0F30E00C1
:1004B00048F68F7108406049086001F049F85E49CC
:1004C00009684BF6BF7201EA02005C49098801F431
:1004D000805109B180F480505849098800E056E005
:1004E00001F4005109B180F400505549098801F028
:1004F000100109B180F010005149098801F0200174
:1005000009B180F0200081B241F4004141F0800146
:10051000494A1160BDE7FFE7BDF8000000F4004064
:10052000002878D044480068C0F30E0048F68F7168
:1005300008404149086000F035FD3F4909684BF625
:10054000BF7201EA02003D49098801F4805109B1F6
:1005500080F480503949098801F4005109B180F4D0
:1005600000503749098801F0100109B180F01000EE
:100570003349098801F0200109B180F0200081B2DF
:1005800041F4004141F080012B4A116081E7294884
:1005900000782C4901EB8000D0F8000C80B200906C
:1005A000BDF8000000F40040C0B12248007801EB23
:1005B0008000D0F8000CC0F30E0048F68F710840A0
:1005C0001C4909781F4A02EB8101C1F8000C194946
:1005D0000978491E1C4A52F821008047BDF80000E6
:1005E00000F08000B8B113480078164901EB800094
:1005F000D0F8000C48F60F7108400E490978114AEE
:1006000002EB8101C1F8000C0A490978491E0F4A22
:1006100052F82100804708484430006880B20449FD
:10062000088000F4004000287FF4D2AE00BF30E71D
:10063000B8030020A0030020005C0040B4030020A9
:10064000B603002000500040E0030020C403002057
:100650000B4A02EB8001D1F8001C01F4804171B11A
:1006600002EB8001D1F8001C48F68F7211404CF269
:1006700080021143024B03EB8002C2F8001C70475A
:10068000005000400B4A02EB8001D1F8001C01F041
:10069000400171B102EB8001D1F8001C48F68F7265
:1006A000114048F2C0021143024B03EB8002C2F832
:1006B000001C704700500040084A02EB8001D1F84E
:1006C000001C48F68F62114048F280021143034B30
:1006D00003EB8002C2F8001C70470000005000408D
:1006E0002DE9F0472848006800F110052E882648BB
:1006F0000068077AD6B9042F18D124480078012859
:100700000FD100212248006880B2801C214A42F8A3
:10071000101030202049088000BF00201B490870BD
:1007200003E0072710201C49088027E0AC88A64278
:1007300001D8042000E002200746B44200D9344624
:10074000A0B2A96888478046002000F0F5FA8146EB
:10075000A2B24946404601F0E7FEA1B2002000F0F7
:100760001BFE2888001B2880688820446880302071
:100770000949088000020949088000BF0249096848
:100780000F72BDE8F0870000A40300207E03002064
:10079000505C004000600040B6030020B40300201D
:1007A0002DE9F0412848006800F110042688A0686F
:1007B000C0B1BEB1A588B54200D93546A8B2A1687E
:1007C000884707462088401B208060882844608036
:1007D000002000F08FFA8046AAB24146384600F069
:1007E00009FC00BF208850B14FF4405017490880E1
:1007F0000021084600F0D0FD3020154908802088EF
:10080000A188884204DB03200F490968087218E0B8
:100810002088002804DD05200B490968087210E0D3
:10082000208870B906200849096808720021094823
:10083000006880B2801C084A42F810103020044939
:100840000880BDE8F0810000A4030020B40300206C
:10085000B6030020505C0040006000402DE9F84FD6
:100860009B48006845780027BA46062D1BD198485A
:100870000068007800F07F00002813D194490968CF
:100880008878012803D193490968CF690AE00228D2
:1008900003D1904909680F6A04E0032802D18D4909
:1008A00009684F6A94E0002D64D189480068408847
:1008B00000285FD186480068C08802285AD1844841
:1008C00000680079002855D181480068007800F060
:1008D0007F0028B97E480068808808B97E4F77E09D
:1008E0007B480068007800F07F00012810D178492B
:1008F00009684879774909688A6900219047002882
:1009000066D173480068807A002861D0724F5FE03A
:100910006F480068007800F07F00022858D16C48CA
:100920000068407900F00F0669480068407900F0DF
:10093000700967480068407900F0800038B1674965
:1009400001EB8600D0F8000C00F0300806E06349A7
:1009500001EB8600D0F8000C00F4405860480078A5
:10096000B04235D9B9F1000F32D1B8F1000F2FD014
:10097000594F2DE0082D07D155480068007800F048
:100980007F0028BB574F23E00A2D21D15048006833
:10099000007800F07F0001281AD14D480068807A65
:1009A000B0B14B480068408890B949480068007968
:1009B00070B947480068C088012809D144490968CE
:1009C0004879444909688A690021904700B9464F2F
:1009D00057B13F480068A0F812A03D480068876101
:1009E0000020B84700240FE0394A12685078394A8D
:1009F0001268116988470446032C05D1092034493F
:100A000009680872BDE8F88F31480068008A4FF61F
:100A1000FF71884204D109202D4909680872F1E765
:100A2000022C03D02A480068008A20B908202849EF
:100A300009680872E6E726480068007800F0800040
:100A4000E0B323480068C088009021480068008A0D
:100A50000099884204D91E4900980968088223E059
:100A60001B480068008A1A490968C98888421BDA4D
:100A700017480068008A1749096891F82C108842C5
:100A800003DA0020194908700EE011480068008A56
:100A90001049096891F82C1090FBF1F201FB12004B
:100AA00010B90120114908700A48006890F82C100C
:100AB000074800688182FFF713FE07E0FFE7032085
:100AC00003490968087200030949088000BF99E7D3
:100AD000A4030020A8030020F117000800500040E4
:100AE0000804002075170008C51700087E030020C1
:100AF000B4030020704700000120014908607047DE
:100B0000A004002010B5012007490860032000F070
:100B100001F9064908600846008882B24FF48871DE
:100B2000034800F067FA10BDA40400209C030020D5
:100B3000D0040020014908607047000014040140FF
:100B4000002123498279002A3AD00A4612680368B4
:100B50009A430B461A600A1D126803689A430B1DDC
:100B60001A60027911440A6803681A430A60184A35
:100B70000832126803689A43154B08331A601A1D2D
:100B8000126803689A43124B0C331A604279102A98
:100B90000ED11A1F126803681A430D4B08331A60EE
:100BA0001A1D126803681A43094B0C331A600DE0D2
:100BB0000749427911440A6803681A430A6005E04C
:100BC000027911440A6803689A430A60704700007A
:100BD000000401402DE9F0410246002500260020D6
:100BE00000230024002791F803C00CF00F0591F8B2
:100BF00003C00CF0100CBCF1000F03D091F802C040
:100C00004CEA050591F800C0BCF1000F31D0146822
:100C100000202BE04FF0010C0CFA00F3B1F800C0FB
:100C20000CEA03069E4220D183004FF00F0C0CFA11
:100C300003F7BC4305FA03FC4CEA040491F803C033
:100C4000BCF1280F06D14FF0010C0CFA00FCC2F8E1
:100C500014C00AE091F803C0BCF1480F05D14FF071
:100C6000010C0CFA00FCC2F810C0401C0828D1D3BB
:100C70001460B1F800C0BCF1FF0F34DD54680020EF
:100C80002EE000F1080C4FF0010808FA0CF3B1F85F
:100C900000C00CEA03069E4221D183004FF00F0CE6
:100CA0000CFA03F7BC4305FA03FC4CEA040491F880
:100CB00003C0BCF1280F05D100F1080C08FA0CF8AC
:100CC000C2F8148091F803C0BCF1480F07D100F1BD
:100CD000080C4FF0010808FA0CF8C2F81080401C0C
:100CE0000828CED35460BDE8F081416170470161AE
:100CF0007047000001460548006880B200EBC10063
:100D0000001D034A32F8100080B27047505C00406A
:100D10000060004001460648006880B200EBC10058
:100D2000801D044A32F81000C0F30900704700002B
:100D3000505C00400060004001460548006880B2F9
:100D400000EBC100034A32F8100080B27047000087
:100D5000505C00400060004070B50A480468001D07
:100D60000568001D0668344454B10822064920462F
:100D700000F046F8042204491031284600F040F8FB
:100D800070BD0000E8F7FF1F8103002000BFFEE7F1
:100D900010B518480068047A022C01D0042C05D143
:100DA000FFF79EFC13480068047A1CE0062C19D15A
:100DB00010480068407805280ED10E480068007879
:100DC00000F07F0040B90B490968C87800F03AFA92
:100DD00009490968086A804708490968886880479E
:100DE000082400E00824034909680C7200F018F98F
:100DF00010BD0000A4030020B0030020A8030020C1
:100E000030B50B46002100BF16E00A24B4EB107F7A
:100E100005D9302404EB107403F8114005E0412497
:100E200004EB10740A3C03F81140000100254C004B
:100E3000641C1D554C1CE1B29142E6DB30BD000044
:100E400010B5064CA07A18B105200549086002E0EB
:100E500001200349086001F021FA10BD10050020AF
:100E60009004002000BFFEE77047704770B502266F
:100E700047480068447846480068007800F07F00E2
:100E8000002844D1092C03D100F032FD06465FE072
:100E9000052C14D13E480068C0787F280BDC3C4804
:100EA0000068807838B93A480068808818B93848AE
:100EB0000068807A08B1082565E0002648E0032C28
:100EC0000ED133480068C078012807D13048006847
:100ED000808818B900F030FD064639E0022637E078
:100EE000012C35D12A480068C07801280DD1284846
:100EF0000068808848B926480068407A00F02000E1
:100F000018B100F081FB064622E0022620E02048CE
:100F10000068007800F07F00012805D10B2C17D164
:100F200000F086FD064613E019480068007800F0DE
:100F30007F0002280BD1012C03D100F065FB06468F
:100F400006E0032C04D100F00BFD064600E002266B
:100F50004EB1E0B20F4A1268516988470646032E27
:100F600001D109250FE00EB108250CE0062500216E
:100F70000948006880B2801C084A42F810103020EE
:100F80000749088000BF024909680D7270BD000062
:100F9000A4030020A8030020505C00400060004033
:100FA000B603002010B511480068047A022C01D065
:100FB000042C01D1082412E0032C01D0052C05D10A
:100FC000FFF7EEFB09480068047A08E0072C05D11A
:100FD00007490968C8688047082400E008240349D5
:100FE00009680C7200F01CF810BD0000A40300207A
:100FF000A8030020F0B5561C7510074E06EB4104FF
:101000002B4605E034F8047B20F8017B401C5B1E76
:10101000002BF7D1F0BD00000060004070470000D9
:1010200010B50D4890F82C10002000F045F90B4841
:101030000068007A082805D140020949088010207C
:101040000849088005480068007A092801D1012074
:1010500010BD0020FCE700000C040020A4030020C9
:10106000B4030020B603002010B5012001F04CF9B4
:1010700001240B48046000200A49088008460088C3
:10108000074908600020091D08604FF4E050054939
:1010900008800846008802490860002010BD000052
:1010A000405C0040AE03002029B1064AD2690243E9
:1010B000044BDA6104E0034AD2698243014BDA61EE
:1010C000704700000010024029B1064A92690243AD
:1010D000044B9A6104E0034A92698243014B9A618E
:1010E000704700000010024070B50546072D01D082
:1010F0002E4805702D48007808284ED2DFE800F011
:1011000004111A202B384E4F2948006828B900F0E6
:1011100053F806202549087002E00520234908708D
:1011200041E000F049F804202049087001202049DE
:10113000086038E002201D4948700320087032E042
:101140001A484078401E194948700846407808B946
:101150000420087027E01748006884B244F01004A7
:10116000144804600520114908700A2048701AE0EC
:101170000E484078401E0D4948700846407858B9DE
:101180000C48006884B224F010040A480460062069
:10119000087000200649086005E000BF00BF062077
:1011A0000249087000BF00BF70BD00009504002018
:1011B00098040020405C004010B50748006884B2E5
:1011C00024F0040404480460FFF73AFE4FF43F4063
:1011D0000149086010BD0000405C004021B1028858
:1011E00042F04002028004E002884FF6BF731A40CA
:1011F0000280704710B50022028802F441520B8829
:101200004C8823438C882343CC8823430C89234375
:101210004C8923438C892343CC8923431A4302807E
:10122000838B4FF2FF74234083830B8A038210BDAC
:10123000704700004FF6F8710140014A1160704795
:10124000505C004030B501460F4B1A78002014E086
:1012500003060E4C04EB9353D3F8003C48F68F740E
:10126000234048F280042343C4B223430406074DBD
:1012700005EB9454C4F8003C401C9042E8D341F084
:101280008003034C236030BD080400200050004060
:101290004C5C004010B54A105300054A126892B2E7
:1012A00002EBC002121D034C44F8123010BD0000C6
:1012B000505C00400060004010B502460F480068D6
:1012C00080B200EBC200801D0D4C04EB40033E29B0
:1012D0000BDD481101F01F040CB9441EA0B24FF4FD
:1012E000004444EA80241C6007E0481001F0010437
:1012F0000CB1441CA0B284021C6010BD505C0040C4
:101300000060004030B50E4C04EB8003D3F8003C85
:101310004BF68F7403EA040201F480530BB182F49C
:10132000805201F400530BB182F4005242F40043A6
:1013300043F08003024D05EB8004C4F8003C30BD4F
:101340000050004010B50B4B03EB8002D2F8002C8C
:101350004BF68F7302EA030181F4805181F400514E
:1013600041F4004242F08002024C04EB8003C3F8D7
:10137000002C10BD0050004010B54A105200044B24
:101380001B689BB203EBC003024C44F8132010BD52
:10139000505C004000600040044A126892B202EBC8
:1013A000C002921C024B43F812107047505C004080
:1013B0000060004030B50E4C04EB8003D3F8003CD5
:1013C00048F6BF7403EA040201F010030BB182F087
:1013D000100201F020030BB182F0200242F400431E
:1013E00043F08003024D05EB8004C4F8003C30BD9F
:1013F0000050004010B5074B03EB8002D2F8002CE0
:1014000048F68F131A400A43024C04EB8003C3F8DA
:10141000002C10BD0050004010B500F001F810BDC8
:101420000CB50020019000903348006840F48030F3
:101430003149086000BF3048006800F40030009077
:101440000198401C0190009818B90198B0F5A06F60
:10145000F1D12948006800F4003010B1012000905B
:1014600001E0002000900098012843D12348006843
:1014700040F01000214908600846006820F0030091
:1014800008600846006840F0020008601A4840689A
:10149000194948600846406848600846406840F47A
:1014A000806048600846406820F47C104860084628
:1014B000406840F4E81048600846006840F08070DA
:1014C000086000BF0C48006800F000700028F9D0E8
:1014D0000948406820F00300074948600846406812
:1014E00040F00200486000BF0348406800F00C0074
:1014F0000828F9D10CBD0000001002400020024075
:1015000008B501212020FFF7DFFD4FF40070ADF892
:10151000000003208DF8020014208DF803006946B6
:101520000948FFF757FB4FF48020FFF703FB4FF408
:10153000802006490860082048710120887108460B
:10154000FFF7FEFA08BD0000001401407003002000
:1015500038B501242948006880B2001D284931F8B7
:10156000100080B201EB4000009026480068007A2D
:10157000092832D00098007822490968087000983C
:10158000401C0090009800781E4909684870009837
:10159000401C0090009800EB44000090009931F846
:1015A000020B0091FEF709FF164909684880009870
:1015B00000EB44000090009931F8020B0091FEF717
:1015C000FCFE104909688880009800EB44000090F8
:1015D000009800880B490968C880012009490968FA
:1015E000087208480068C08810B9FFF73FFC01E0A6
:1015F000FFF734F9FFF714FD38BD0000505C0040E0
:1016000000600040A40300202DE9F0475448006822
:10161000007800F07F08B8F1000F0AD15048006848
:10162000407A00F0DF004E49096848720020BDE8AA
:10163000F087B8F1020F7CD149480068408818B99A
:1016400047480068007908B10220F0E7DFF81491FC
:1016500043480068477927F080052C4640480068D9
:10166000407900F0800038B13F4901EB8400D0F8A8
:10167000000C00F0300606E03B4901EB8400D0F896
:10168000000C00F4405699F80000A84204D91EB19D
:1016900033480068807A08B90220C8E707F0800064
:1016A00080B1314901EB8400D0F8000C00F030002B
:1016B00010284BD1E0B2FEF7E5FFE0B23021FFF792
:1016C00079FE43E0284901EB8400D0F8000C00F4D7
:1016D0004050B0F5805F39D1E4B9244A92F82C101B
:1016E000E0B2FFF7E9FD204A02EB8401D1F8001CCB
:1016F0004BF68F7201EA020080F4805080F40050B3
:1017000040F4004141F08001174B03EB8402C2F822
:10171000001C1BE0E0B2FEF79BFF134A02EB8401C2
:10172000D1F8001C4BF68F7201EA020080F4805061
:1017300000E011E080F4005040F4004141F08001ED
:10174000094B03EB8402C2F8001C00BF084909687A
:101750004869804700206AE700BF022067E7000071
:10176000A403002008040020005000400C040020C6
:10177000B003002010B504462CB9012006490968C1
:101780000882002010BD05490968086880470248A2
:1017900000680A30F6E70000A4030020B003002030
:1017A00010B5024606480068438A32B98888C01AD4
:1017B000034C24682082002010BD08681844FBE711
:1017C000A403002010B504462CB90120064909687D
:1017D0000882002010BD05490968886880470248D2
:1017E00000680C30F6E70000A4030020B0030020DE
:1017F00010B504462CB90220394909680882002036
:1018000010BD00203749088035480068007800F096
:101810007F0018BB32490968487A00F0200131B1D5
:101820003049097841F002012E4A117005E02D4936
:10183000097801F0FD012B4A117000F0400131B12F
:101840002849097841F00101264A117005E025492F
:10185000097801F0FE01234A11703AE0204800683F
:10186000007800F07F00012801D11E48C8E71C481D
:101870000068007800F07F00022828D1184A12681A
:10188000517901F00F0001F080027AB1164B03EBA1
:101890008002D2F8002C02F03002102A16D1114A30
:1018A000127842F001020F4B1A700FE00E4B03EB5F
:1018B0008002D2F8002C02F44052B2F5805F05D1CC
:1018C000084A127842F00102064B1A7001E000202B
:1018D00096E70649096808698047024890E70000D2
:1018E000A40300207C03002000500040B00300202F
:1018F00010B50E480068C0780D494978884213DC5D
:101900000A480068807878B908480068808858B923
:1019100006480068C0780549096888720549096861
:1019200048688047002010BD0220FCE7A403002087
:1019300008040020B003002010B507480068407A72
:1019400040F0200004490968487204490968C869E0
:101950008047002010BD0000A4030020B003002039
:101960002DE9F0412E480068467926F080073C4674
:101970002B480068407900F0800038B1294901EB1C
:101980008400D0F8000C00F0300506E0254901EB9A
:101990008400D0F8000C00F4405523480078A042A1
:1019A00008D91F480068408820B91DB11C4800684C
:1019B000807A10B90220BDE8F08106F08000A0B165
:1019C000184A02EB8401D1F8001C48F6BF7201EA04
:1019D000020080F0100040F4004141F08001114B02
:1019E00003EB8402C2F8001C14E00E4A02EB8401EF
:1019F000D1F8001C4BF68F7201EA020080F480508F
:101A000040F4004141F08001064B03EB8402C2F830
:101A1000001C00BF05490968886980470020CAE7A3
:101A2000A40300200050004008040020B003002060
:101A300010B5174B1B68D978154B1B685879154B97
:101A40001B689A699047044611480068807AE8B19B
:101A50003CB90F480068007918B90D4800688078D3
:101A600008B1022010BD8CB90B490968C8688047CD
:101A700007480068407906490968C8720448006848
:101A8000C0780349096808730020EBE70220E9E702
:101A9000A4030020A8030020B003002038B50021D3
:101AA000002200230093394B1B6898B200BF09E065
:101AB000374C04EB8103D3F8003C9BB2354C44F81F
:101AC0002130491C0829F3D340F480602F4B186063
:101AD00040F00100186020F00100186000BF2B4B9F
:101AE0001B1D1B6803F48063002BF8D04FF6FF33F7
:101AF000264C241D2360002109E0264B53F8213099
:101B00009BB2234D05EB8104C4F8003C491C082915
:101B1000F3D340F008001D4B18601B6898B240F0EA
:101B200004001A4B18601C4B1B6800931A4B1A6870
:101B300022F0030242F001021A60184B1B6843F0C6
:101B40000403164C2360114B1B1D1B6803F48053C8
:101B500033B930BF23461B6823F00403236014E02D
:101B60004EF6FF73094C241D2360231F1B6898B297
:101B700020F00800231F1860074C009B2360074BD0
:101B80001B6823F00403054C236038BD405C004013
:101B9000005000402C0500200070004010ED00E0D7
:101BA000612800D14120622800D14220632800D161
:101BB0004320642800D14420652800D145206628B0
:101BC00000D14620672800D14720682800D148204E
:101BD000692800D149206A2800D14A206B2800D109
:101BE0004B206C2800D14C206D2800D14D206E2850
:101BF00000D14E206F2800D14F20702800D15020F6
:101C0000712800D15120722800D15220732800D1B0
:101C10005320742800D15420752800D155207628EF
:101C200000D15620772800D15720782800D158209D
:101C3000792800D159207A2800D15A2060286FD203
:101C4000DFE800F0303A444E58626C77818B6E6E5C
:101C50006E6E6E6E6E6E6E6E6E6E6E6E6E6E6E6EA4
:101C60006E6E6E6EEE6E6E6E6E6E6E6E6E6E6EED95
:101C7000ECEBEA6E959FA9B3BDC7F7E8E7E6E56E22
:101C80006EE46E6E6EE3E2E1E0DFDEDDDCDBDAD92E
:101C9000D8D7D6D5D4D3D2D1D0CFCECDCCCBCA6E97
:101CA0006E6E6EC9002104E0F84A525CF84B5A543B
:101CB000491C1429F8D38BE2002104E0F54A525C58
:101CC000F34B5A54491C1429F8D381E2002104E053
:101CD000F14A525CEE4B5A54491C1429F8D377E26E
:101CE000002104E0ED4A525CE94B5A54491C142986
:101CF000F8D36DE2002104E0E94A525CE44B5A5407
:101D0000491C1429F8D363E2002104E0E54A525C3F
:101D1000DF4B5A54491C1429F8D359E2002105E03D
:101D20004DE2E14A525CDA4B5A54491C1429F8D36B
:101D30004EE2002104E0DD4A525CD54B5A54491C66
:101D40001429F8D344E2002104E0D94A525CD04B74
:101D50005A54491C1429F8D33AE2002104E0D54A28
:101D6000525CCB4B5A54491C1429F8D330E2002161
:101D700004E0C64A525CC64B5A54491C1429F8D395
:101D800026E2002104E0C34A525CC14B5A54491C6C
:101D90001429F8D31CE2002104E0BF4A525CBC4B7A
:101DA0005A54491C1429F8D312E2002104E0BB4A1A
:101DB000525CB74B5A54491C1429F8D308E200214D
:101DC00004E0B74A525CB24B5A54491C1429F8D368
:101DD000FEE100212AE0C1E14DE142E137E12CE1E1
:101DE00021E116E10BE100E1F5E0EAE0DFE0D4E01B
:101DF000C9E0BEE0B3E0A8E09DE092E087E07CE0CF
:101E000071E066E05BE050E045E03AE0C4E19BE170
:101E10002DE022E017E00CE082E1A9E18AE1B1E1E6
:101E2000C4E1A04A525C9A4B5A54491C1429F8D375
:101E3000CEE1002104E09C4A525C954B5A54491C67
:101E40001429F8D3C4E1002104E0984A525C904B75
:101E50005A54491C1429F8D3BAE1002104E0944AE9
:101E6000525C8B4B5A54491C1429F8D3B0E1002121
:101E700004E0904A525C864B5A54491C1429F8D30A
:101E8000A6E1002104E08C4A525C814B5A54491C63
:101E90001429F8D39CE1002104E0884A525C7C4B71
:101EA0005A54491C1429F8D392E1002104E0844AD1
:101EB000525C774B5A54491C1429F8D388E100210D
:101EC00004E0804A525C724B5A54491C1429F8D3DE
:101ED0007EE1002104E07C4A525C6D4B5A54491C5F
:101EE0001429F8D374E1002104E0784A525C684B6D
:101EF0005A54491C1429F8D36AE1002104E0744AB9
:101F0000525C634B5A54491C1429F8D360E10021F8
:101F100004E0704A525C5E4B5A54491C1429F8D3B1
:101F200056E1002104E06C4A525C594B5A54491C5A
:101F30001429F8D34CE1002104E0684A525C544B68
:101F40005A54491C1429F8D342E1002104E0644AA0
:101F5000525C4F4B5A54491C1429F8D338E10021E4
:101F600004E0604A525C4A4B5A54491C1429F8D385
:101F70002EE1002104E05C4A525C454B5A54491C56
:101F80001429F8D324E1002104E0584A525C404B64
:101F90005A54491C1429F8D31AE1002104E0544A88
:101FA000525C3B4B5A54491C1429F8D310E10021D0
:101FB00004E0504A525C364B5A54491C1429F8D359
:101FC00006E1002104E04C4A525C314B5A54491C52
:101FD0001429F8D3FCE0002104E0484A525C2C4B61
:101FE0005A54491C1429F8D3F2E0002104E0444A71
:101FF000525C274B5A54491C1429F8D3E8E00021BD
:1020000004E0404A525C224B5A54491C1429F8D32C
:10201000DEE0002104E03C4A525C1D4B5A54491C4E
:102020001429F8D3D4E0002104E0384A525C184B5C
:102030005A54491C1429F8D3CAE0002104E0344A58
:10204000525C134B5A54491C1429F8D3C0E00021A8
:1020500004E0304A525C0E4B5A54491C1429F8D300
:10206000B6E0002104E02C4A525C094B5A54491C4A
:102070001429F8D3ACE0002104E0284A525C044B58
:102080005A54491C1429F8D3A2E00000080000208B
:10209000BC0400201C000020300000204400002070
:1020A000580000206C0000208000002094000020D8
:1020B000A8000020BC0000205C010020700100206E
:1020C0008401002098010020AC010020C001002004
:1020D000D4010020E8010020FC01002010020020B3
:1020E00024020020380200204C0200206002002060
:1020F00074020020880200209C020020B002002010
:10210000C4020020D8020020EC02002000030020BE
:1021100014030020280300203C030020500300206B
:10212000002104E02B4A525C2B4B5A54491C1429C1
:10213000F8D34DE0002104E0284A525C264B5A5463
:10214000491C1429F8D343E0002104E0244A525CDE
:10215000214B5A54491C1429F8D339E0002104E0DA
:10216000204A525C1C4B5A54491C1429F8D32FE0C6
:10217000002104E01C4A525C174B5A54491C142994
:10218000F8D325E0002104E0184A525C124B5A545F
:10219000491C1429F8D31BE0002104E0144A525CC6
:1021A0000D4B5A54491C1429F8D311E0002103E0C7
:1021B0000022094B5A54491C1429F9D308E0002184
:1021C00003E00022044B5A54491C1429F9D300BFE0
:1021D00000BF7047D0000020BC040020E4000020B5
:1021E000F80000200C010020200100203401002014
:1021F000480100207047000010B500210020002297
:10220000214B5B6803F00C0121B1042906D0082999
:1022100028D107E01D4B1E4C236027E01B4B1C4CB4
:10222000236023E0184B5B6803F47010164B5B6867
:1022300003F48032022303EB904022B9154B434351
:10224000134C23600DE0104B5B6803F4003323B1A3
:10225000104B43430E4C236003E00C4B43430C4CA8
:10226000236003E0094B0A4C236000BF00BF064B0C
:102270005B68C3F30313084CE15C054B1B68CB4060
:10228000034C236010BD00000010024000127A00D1
:10229000A804002000093D00AC04002010B513483C
:1022A000006840F001001149086008464068104984
:1022B00008400E494860084600680E4908400B492E
:1022C00008600846006820F48020086008464068DE
:1022D00020F4FE0048604FF41F008860FFF79CF870
:1022E0004FF000600449086010BD0000001002407B
:1022F0000000FFF8FFFFF6FE08ED00E010B54FF418
:102300008020FEF717FC10BD10B504462CB14FF429
:1023100000710548FEF7E9FC04E04FF40071024843
:10232000FEF7E5FC10BD00000014014010B588B0B8
:10233000002468480068684908800846008800F45E
:10234000007066490988084040B14FF6FF50614966
:10235000086063480078401C614908705E48008846
:1023600000F400405D490988084008B1FEF72CF8E8
:102370005948008800F4806058490988084030B105
:102380004FF6FF3053490860564948688047524825
:10239000008800F4005051490988084018B14DF6F2
:1023A000FF704C4908604C48008800F480504B494D
:1023B0000988084030B14EF6FF7046490860002099
:1023C000FEF792FE4448008800F400604349098803
:1023D000084060B14448007810B1FFF75FFB02E0AD
:1023E0000220FEF781FE4FF2FF703A4908603A483A
:1023F000008800F48070394909880840002866D0B8
:102400004FF6FF6033490860081D006800F4004083
:10241000002856D035480068401C344908600846FA
:102420000068032850D92B48001F006800F00800FE
:10243000002849D12748001F006880B22C49086055
:10244000002408E02B4901EB8400D0F8000C80B296
:102450004DF82400641C082CF4D32548006840F093
:102460000100234908600846006880B21949091F25
:1024700008601F48006820F001001D4908600846F8
:10248000006880B21349091F086000BF1148006846
:1024900000F480600028F9D04FF6FF300D49086045
:1024A000002408E05DF8240080B2124A02EB8401A7
:1024B000C1F8000C641C082CF4D300200B49086000
:1024C00002E00020094908600720FEF70DFE08B071
:1024D00010BD0000445C0040B8030020AE030020A3
:1024E000BA0300200C04002094040020BC03002048
:1024F000C00300200050004010B5FFF717FF10BDCB
:102500000020064908604FF43F400549088008460E
:1025100000880249091F086000207047445C0040A1
:10252000AE03002000BFFEE7F0B5144604F1010C35
:102530004FEA6C07DFF824C00CEB41033D460AE08C
:102540000678401C90F800C046EA0C2223F8022BC3
:102550009B1C401C6D1E002DF2D1F0BD00600040A0
:1025600070B504460025212C08D112480068007877
:1025700000F07F0021280ED10F4D0CE0202C0AD155
:102580000C480068007800F07F00212800D10B4D36
:1025900020200B4908700DB9022070BD0548006865
:1025A000856100210348006841820020A84700207F
:1025B000F3E70000A4030020ED2500087D270008B4
:1025C000FC03002010B5044602492046FFF7E8F856
:1025D00010BD00006804002010B5044602492046E2
:1025E000FFF7DEF810BD000060040020014629B9A5
:1025F0000820034A12681082002070470148FCE757
:10260000A40300200004002070B5054606480068B9
:10261000C478042C01DD002070BD044800EBC40127
:102620002846FFF7BDF8F7E7A40300207004002058
:102630000246002901DD02207047012A01DD022047
:10264000FAE70020F8E70000014608480068007833
:1026500000F07F00212807D1022901D10020704716
:10266000222901D10020FAE70220F8E7A403002084
:1026700010B500203449096888723448C07932495D
:1026800009684872002030490968C872FEF7D2FD17
:102690004FF400710020FEF7ADFE10210020FEF780
:1026A00089FE40210020FEF7F5FD80210020FEF785
:1026B00063FE0020FEF700F8254890F82C1000205B
:1026C000FEF7FAFD0020FEF73DFE00210120FEF797
:1026D00091FEC0210120FEF74FFE20210120FEF7D0
:1026E00069FE00210120FEF70DFE4FF4C0610220BB
:1026F000FEF780FE4FF480710220FEF73DFE0021C0
:102700000220FEF7FFFD20210220FEF753FE0021EC
:102710000320FEF76FFE4FF488710320FEF7BAFD29
:1027200040210320FEF7C8FD4FF440510320FEF77F
:10273000E9FD00210320FEF73DFE0020FEF782FDAB
:1027400001200449086010BDA40300209E34000845
:102750000C040020900400200348817A11B1052167
:10276000024A11607047000010050020900400200C
:10277000042001490860704790040020014629B9EF
:102780000820034A12681082002070470148FCE7C5
:10279000A40300200004002003480078202802D170
:1027A0000020014908707047FC03002070470000BA
:1027B00010B5FEF7D1FA0020054909688872FEF7C6
:1027C00053FCFFF79DFE00200249086010BD000089
:1027D000A4030020900400202DE9F04704460D4694
:1027E0000D4909784FF47A7201FB02F000F025FDE3
:1027F000064622462B4600F04BFD80468946404661
:10280000494600F0EDFC0549086008460068FDF700
:10281000DBFCBDE8F0870000000000200400002081
:1028200070B500F049FA11A000F024FB002508E083
:1028300012A000F01FFB00201149FFF7CDFF681C1C
:10284000C5B2032DF4DB002507E000F04BF90020B2
:102850000B49FFF7C1FF681CC5B2032DF5DB094822
:102860004468094804600068804770BD454E54457F
:102870005220424F4F54204E4F5700002E00000070
:1028800000407F40008001089C0400202DE9F041B9
:10289000FFF7B2FC0748006800F0E6FC064600229D
:1028A000054B00F045FB044600F09AFC0349087014
:1028B000BDE8F081A804002060E35641000000203C
:1028C00010B501211020FEF7FFFB01210820FEF7C3
:1028D000FBFB01210420FEF7F7FB1021054800F067
:1028E0000FF81021044800F00BF81021034800F005
:1028F00007F810BD00080140000C01400010014025
:1029000038B505460C464FF6FF70ADF800008DF85F
:10291000034069462846FEF75DF938BD10B5FEF75D
:10292000EFFDFFF7B3FF00F0BBF908A000F0A2FA3B
:1029300000F0C2F9094842681046002100F004F98D
:1029400000F0BAF9FFF76CFF002010BD5445535456
:102950005F50524F4752414D000000000080010877
:102960002DE9F04780460E4614464FF0000900203E
:1029700003E00021304A1154401C1428F9D340468A
:10298000FFF70EF92A2000F0ADF9002000F0E4F97D
:10299000C6EBC601C8B200F0DFF9002000F0DCF998
:1029A000C6EBC601891DC8B200F0D6F92B2000F095
:1029B00099F9002000F0D0F9E106080E00F0CCF9FA
:1029C000002000F0C9F9072101EBC401C8B200F0F2
:1029D000C3F92C2000F086F9002728E04FF0000909
:1029E000002512E01448405DB8420DD11248405D08
:1029F00050B1FF2000F0B0F9FF2000F0ADF9FF204A
:102A000000F0AAF94FF001096D1C142DEAD3B9F1B9
:102A1000000F0BD10948007800F09EF908480078B3
:102A200000F09AF90748007800F096F97F1C382FDB
:102A3000D4DBBDE8F0870000BC0400206403002064
:102A40006503002066030020024A1070024A1170DC
:102A50007047000067030020680300202DE9F04163
:102A600006460C4615462A2000F03CF9002000F0EE
:102A700073F9002000F070F9002000F06DF99F203C
:102A800000F06AF92B2000F02DF9002000F064F925
:102A9000002000F061F9002000F05EF99F2000F0B6
:102AA0005BF92C2000F01EF900270FE0304600F003
:102AB00053F909480670204600F04EF907480470A3
:102AC000284600F049F9064805707F1C46F2C120EF
:102AD0008742EBDBBDE8F081640300206503002042
:102AE0006603002010B50C480078401E0A490870A3
:102AF00008460078FF2807D108480078401E07499B
:102B000008701120044908700448027802480178CE
:102B10002020FFF725FF10BD670300206803002079
:102B200010B5064802780648017806480078FFF795
:102B300095FF00210846FFF787FF10BD66030020C0
:102B400065030020640300202DE9F04389B00546A9
:102B50000E464FF037091022002328463146FDF774
:102B600057FB02F0FF08002405A800F8048013E0DA
:102B70001022002328463146FDF74AFB02F0FF08E9
:102B80001022002328463146FDF742FB05460E463B
:102B900005A800F80480641C1021691A76F1000071
:102BA000E6D2002C01DD05A90D55002005E005AA9F
:102BB000115C221A01AB9954401C611C8842F6DB5F
:102BC000002722E014480078112807DD1348007818
:102BD000401C1249087000200F49087001A8C05D10
:102BE000092804DD01A8C05D484401A9C85501A910
:102BF000C85D0A490A7808490978FFF7B1FE064816
:102C00000078401C044908707F1C601C8742D9DB97
:102C100009B0BDE8F08300006703002068030020CE
:102C20002DE9F04107460C4615461E461848006837
:102C300020F480601649086000201649FFF7CCFD9B
:102C40001348006840F48060114908600020124970
:102C5000FFF7C2FD3A2000F045F8062000F07CF8AE
:102C6000112000F03FF800200C49FFF7B5FD2920A6
:102C700000F038F8362000F035F8384600F06CF8EF
:102C8000324629462046FFF7E9FEBDE8F081000004
:102C90000C0C01400000244000406F4000C0624026
:102CA00010B5002000F092F8FF2300221146C0204A
:102CB000FFF7B6FF10BD00000848007818B90848B3
:102CC000007800B970470020044908700448007873
:102CD000401C0349087000BFF4E7000067030020B0
:102CE0006803002010B5044601211948FEF776FA62
:102CF0001848006820F4006016490860084600681B
:102D000020F48050086000BF11480830008800F0AF
:102D100002000028F8D00E480C30048000BF0C4898
:102D20000830008800F001000028F8D008480C3076
:102D3000008800BF06480830008800F080000028A6
:102D4000F8D10448006840F480500249086010BD82
:102D5000003800400C0C014010B504460121194810
:102D6000FEF73CFA1848006840F400601649086015
:102D70000846006820F48050086000BF1148083001
:102D8000008800F002000028F8D00E480C300480C3
:102D900000BF0C480830008800F001000028F8D07F
:102DA00008480C30008800BF06480830008800F052
:102DB00080000028F8D10448006840F4805002499F
:102DC000086010BD003800400C0C014010B586B002
:102DD000044601218803FEF767F9FFF771FD4FF400
:102DE0008040ADF8140004208DF8170005A91F4895
:102DF000FDF7F0FE4FF42040ADF8140018208DF8D8
:102E0000170003208DF8160005A91848FDF7E2FE0B
:102E10000020ADF800004FF48270ADF802000020F1
:102E2000ADF80400ADF80600ADF808004FF40070EE
:102E3000ADF80A000020ADF80E00ADF80C40694670
:102E40000B48FEF7D7F90A48001D008840F004003F
:102E50000749091D088041F6024004490C31086009
:102E600001210348FEF7BAF906B010BD000C01407D
:102E7000003800402DE9F041054600262846FDF7C0
:102E80003EFA804600243BE026480078112801DD08
:102E9000FFF712FF24480078132805DD002023499E
:102EA000FFF79AFCFFF73CFE285D0A2802D1FFF7E6
:102EB00003FF27E0285D202801D146F00106285DA8
:102EC0002F2806D106F0010010B146F0020600E0FE
:102ED0000026285D6E2806D106F0020010B146F0EB
:102EE000040600E00026285D0F490A780D4909789C
:102EF000FFF736FD0B480078401C0A490870641C37
:102F00004445C1DB00BF072E09D1002702E0FFF7CF
:102F1000E9FD7F1C032FFADBFFF7CEFE0026BDE89C
:102F2000F0810000670300206803002000408F400C
:102F30002DE9C04130B4DFF8A0C23CEA111418BF3B
:102F40003CEA131400F0EC8081EA03051CEA11143A
:102F500044EAD57418BF1CEA131500F0C780A4EB2F
:102F600005044FF0004545EAC12145EAC32341EA83
:102F7000505143EA525304F17F74994204F50034EE
:102F80004FEAC0204FEAC22208BF904200F09C8066
:102F90004FEA13650FF24016765D4FEA134506FBC4
:102FA00005F7C7F1807706FB07F74FEAD737A7FB8E
:102FB00003687642C8F58038A7FB06CE38BFA8F173
:102FC000010807FB08E64FF0000EA6FB028CE6FBAB
:102FD00003CEDCF1000CCEF1004E38BFAEF1010E95
:102FE000A6FB0C584FF000074FF00005E6FB0E87DC
:102FF000A1FB08C6A0FB07CE16EB0E0645F10005A7
:10300000E1FB076515F1E04E7EBFA4F580345FEA71
:1030100046066D4116F1800745F100054FEA172776
:103020004FEA066647EA0567A6F1DE46B6F1805F1D
:103030004FEA15251FD9384624F0010C05EBC47161
:10304000BCF1FE6F01EB0C1102D8F0BCBDE80081B1
:1030500024425CBF01F5801E9EEAC47F02D4F0BC0E
:10306000BDE80081244238D4F0BCA1F1C041BDE8E4
:10307000004100F005BA4FEAD22242EA43524FEA39
:10308000D323A7FB02864FEAD02040EA415007FB3A
:1030900003661EEA0E0F4FEAD12105FB026658BFF8
:1030A000A6EB0056B6EB00564FEA520E4EEAC37E30
:1030B00018EB0E0E56EB530EBDD518EB02085E4111
:1030C0007F1C55F10005B6E74FF480154FF000075F
:1030D0004FF000064FF00008ADE7F0BC4FF00000E5
:1030E00001F1C04101F00041BDE8008111EA0C1F6F
:1030F0000CEA131500D00CE013EA0C1F00F0258039
:103100004FF00000F0BC81EA030101F00041BDE88E
:103110000081F0BCBDE8004181EA030100F0B0B9D4
:10312000F0BCBDE8004170B500F05CF9097EFC3EE2
:1031300000F007B881EA03014FF0000001F0004100
:10314000704781EA030100F09BB9F0BCBDE8004183
:103150004FF0000021497047FFFDFBF9F7F5F4F24D
:10316000F0EEEDEBE9E8E6E4E3E1E0DEDDDBDAD822
:10317000D7D5D4D3D1D0CFCDCCCBCAC8C7C6C5C480
:10318000C2C1C0BFBEBDBCBBBAB9B8B7B6B5B4B397
:10319000B2B1B0AFAEADACABAAA9A8A8A7A6A5A482
:1031A000A3A3A2A1A09F9F9E9D9C9C9B9A99999846
:1031B0009797969595949393929191908F8F8E8EE9
:1031C0008D8C8C8B8B8A8989888887878685858476
:1031D00084838382828181800000FF070000F87F62
:1031E0004FEA1153A3F58063D3F11E03A8BFD3F1B7
:1031F000200C08DB4FF0004242EAC12252EA505252
:1032000032FA03F0704709420BD4102BC4BF0020E0
:10321000704703F5787CBCF1FF3F05D04FF0FF30DD
:1032200070474FF00000704770B500F0DBF800BF4A
:103230004992248000207047F0E710F0004248BF18
:103240004042B0FA80F310FA03F10AD0C3F11D0333
:1032500003F580634FEA415002EB035202EBD121A8
:1032600070474FF000007047B0FA80F310FA03F196
:103270000AD0C3F11D0303F580634FEA41504FEAC2
:10328000035202EBD12170474FF00000704700005D
:10329000DFF848C170B51CEA111E1EBF1CEA1315E9
:1032A0009EEA0C0F95EA0C0F00F06F8081EA030490
:1032B00023EA4C134EEAD47E21EA4C1141F48011EA
:1032C00043F48013AE44A1FB024CA0FB0365AEF1B6
:1032D0007F7E361955EB0C05A1FB034C4CF1000326
:1032E000A0FB021C16EB0C06654153F100030942DA
:1032F00018BF46F0010613F4007F0BD14FEA0331EB
:103300004FEA0530340341EA155140EA16506FF098
:1033100003020AE04FEAC3214FEAC520F40241EA62
:10332000555140EA56506FF0020202EB2E4201EB7B
:10333000025585EACE710AD05FEA440C18BF24F02A
:10334000004450F1000041F1000120EAD47040F245
:10335000FE7C624500D270BDA84214BF4FF080448D
:103360004FF04044002E08BF0024BEF1806FA8BF7C
:10337000A1F1C041BDE8704080F282804FF00000B2
:1033800001F1C04101F0004170479EEA0C0F0CEAC8
:10339000131518BF95EA0C0F06D04FF0000081EA14
:1033A000030E0EF0004170BD00F01CF88900013ED4
:1033B00000F007B800F009B84FEA430C5FEA5C5C24
:1033C00008D081EA030100F05BB84FEA410C5FEAE4
:1033D0005C5CF6D14FF00000014970470000FF0728
:1033E0000000F87F0EF1020E2EF0030E5EF8046B63
:1033F000364205D4012A43EB030515F5001F12D808
:10340000012841EB010C1CF5001F0CD80ED14FEA2E
:10341000D17C15F5001F0CEB4C0C0CF1020C08BF15
:103420004CEBD37C04E04FF0080C01E04FEAD37C76
:103430000CEB4C0526FA05F606F00706B6F1040C6F
:1034400006D20EEB860CBDE870404CF0010C6047D4
:10345000DFE80CF0090B02024FF000414FF00000D2
:10346000A1F5002170BD19461046012851EB010459
:1034700018BFD4F5001484BF002001F0004170BDD6
:103480000808A0F500114FEA31017047120100024F
:1034900002000040830440570002010203010902B8
:1034A0004300020100C032090400000102020100D1
:1034B0000524001001052401000104240202052452
:1034C000060001070582030800FF09040100020A43
:1034D00000000007050302400000070581024000CC
:1034E00000040309042603530054004D00690063DF
:1034F0000072006F0065006C00650063007400726C
:10350000006F006E006900630073003203530054C3
:10351000004D003300320020005600690072007434
:1035200000750061006C00200043004F004D00203A
:103530000050006F007200740020002000000000A6
:103540006035000800000020BC04000028010008CD
:1035500054370008BC040020F40600008401000871
:10356000811014020304080C0F121316181A1D1EE2
:103570002124282C2D2E180A03090A0F11181F26A2
:103580002B0DAA2F289D13191F25151A01155D054E
:103590000B11193751580E040A0B101216191D1E63
:1035A0001F2021271439287F080F1011121A2B19F8
:1035B000128808090F161718191D3E392829659316
:1035C000262D49A0BA132989144D1A21272C2C1A0B
:1035D000249901102914F232ED08090F102CA9E8E2
:1035E0008139C1F13B111816999E2129C3A71A24CC
:1035F0002526272859A03B161A2F1C24282B5D2985
:10360000DC391559CA297449136B161DD84119287C
:103610003B080B3C1C2124272559143D0405080FA9
:103620003B5A24ADC914C9783A1D7659286A0576E3
:103630002952398B29288E0A11181F267621194EF6
:103640004F0B121920242773498C1A058B1E111653
:10365000171D1F8B29392914197479858928780930
:10366000090B0C0F111316186539783A1012298DB1
:103670006978398D3925597D29C869A269C9892890
:103680002B1F2191293CB928599019131C05080FAB
:10369000112B212891498C291539DEB9C8E9779970
:1036A000146B25272A791419774C26282CA0191475
:1036B0005E1012181E20C49914A96349781A0C29A7
:1036C0002A248B692A0119141A03531254124D1219
:1036D00033023A3213F90A0C1C086B0E040B100566
:1036E0000B1441438025120823040113B127140849
:1036F00071261B0899081AAD041361251B0849108F
:103700001A31041AD90C1AC5041A090C413240297D
:10371000441A59280916741A711C138C3433081270
:103720001A9E0832431AE10832041AE508322613B9
:103730000B352A08FB137F0373201A198B91290C70
:1037400039102BA24A374914000800020304060767
:043750000809000064
:04000005080000ED02
:00000001FF
