:020000040800F2
:10000000A8080020D101000871100008950F000811
:100010006D100008BF0400088522000800000000E1
:1000200000000000000000000000000001150008B2
:10003000B90C000800000000A9120008B91E000851
:10004000EB010008EB010008EB010008EB010008E0
:10005000EB010008EB010008EB010008EB010008D0
:10006000EB010008EB010008EB010008EB010008C0
:10007000EB010008EB010008EB010008EB010008B0
:10008000EB010008EB010008EB010008EB010008A0
:1000900059220008EB010008EB010008EB01000801
:1000A000EB010008EB010008EB010008EB01000880
:1000B000EB010008EB010008EB010008EB01000870
:1000C000EB010008EB010008EB010008EB01000860
:1000D000EB010008EB010008EB010008EB01000850
:1000E000EB010008EB010008C11F000800F002F856
:1000F00000F05FF80AA090E8000C82448344AAF163
:100100000107DA4501D100F054F8AFF2090EBAE860
:100110000F0013F0010F18BFFB1A43F0010318473B
:10012000782B0000982B00000A444FF0000C10F8C8
:10013000013B13F0070408BF10F8014B1D1108BF65
:1001400010F8015B641E05D010F8016B641E01F805
:10015000016BF9D113F0080F1EBF10F8014BAD1C55
:100160000C1B09D16D1E58BF01F801CBFAD505E073
:1001700014F8016B01F8016B6D1EF9D59142D6D3CD
:10018000704700000023002400250026103A28BFF5
:1001900078C1FBD8520728BF30C148BF0B607047F9
:1001A000642900F07D80002070471FB51FBD10B589
:1001B00010BD00F04AF91146FFF7F7FF02F0D6F93B
:1001C00000F068F903B4FFF7F2FF03BC00F070F928
:1001D0000948804709480047FEE7FEE7FEE7FEE7DB
:1001E000FEE7FEE7FEE7FEE7FEE7FEE70448054917
:1001F000054A064B70470000611F0008ED0000082B
:10020000A8020020A8080020A8040020A8040020BC
:100210000FB41CB5074B06AA7B44694600900598AD
:1002200000F0FBF80020694600F00AF91CBC5DF8FC
:1002300014FB0000250200002DE9F0410E460446A3
:10024000002020622046E168884730B3252805D089
:10025000D4E901219047206A401CF2E7E16820467A
:1002600000278847050018D0A5F14100192802D8B9
:1002700020354FF400673246294620462760FFF7B5
:100280008FFF40B1012804D0F61D26F0070608367E
:10029000D8E7361DD6E72846DAE7206ABDE8F081C0
:1002A0002DE9F0410646002410687529314616A54F
:1002B00010D0AFF30080002802DA404213A507E017
:1002C00031688A0701D512A502E0490704D511A5B6
:1002D000012401E0AFF3008000210A2206F1240787
:1002E00009E0B0FBF2FCB0FBF2F302FB1C00303083
:1002F00078541846491C0028F3D123462A46304634
:10030000BDE8F04100F02AB8000000002D00000018
:100310002B0000002000000010B5431C02E010F884
:10032000011B71B18107FAD14FF0013202C88C1A5A
:100330008C4314EAC211F9D0C01A0A0603D0C01EB9
:1003400010BDC01A10BD0A0401D0801E10BD0902E4
:10035000FCD0401E10BD7047704770472DE9F04734
:100360000D4699469246044600F124080168880625
:1003700004D5E06921F01001216000E00120A842CD
:1003800001DD471B00E00027A1697A1902EB090093
:10039000081AA0612078C00602D42046AFF300807E
:1003A000002608E0D4E901211AF806009047206AE7
:1003B000401C761C20624E45F4DB2078C0060AD52E
:1003C0002046AFF3008006E0D4E9012130209047B9
:1003D000206A401C2062381EA7F10107F4DC07E008
:1003E000D4E9012118F805009047206A401C2062DA
:1003F000281EA5F10105F3DC2046AFF3008020782C
:10040000000602D50220BDE8F0870120FBE70000CE
:1004100001694A1C02610878704700B58FB0CDE9C8
:1004200001310021059105497944CDE903101146B8
:100430006846FFF701FF0FB000BD0000E5FFFFFFBA
:100440000A6802F8010B0A607047754600F02CF844
:10045000AE4605006946534620F00700854618B0B1
:1004600020B5FFF7C3FEBDE820404FF000064FF077
:1004700000074FF000084FF0000B21F00701AC46D9
:10048000ACE8C009ACE8C009ACE8C009ACE8C009F8
:100490008D46704710B50446AFF300802046BDE896
:1004A0001040FFF78FBE0000004870474402002054
:1004B00001491820ABBEFEE726000200704700BFCE
:1004C000FEE70146CAB20B1243EA02207047000061
:1004D00010B5002003490860032001F09BF80120BB
:1004E00010BD00000C00002070B505460C46402CE5
:1004F0000FDA0020094908602246C021284601F091
:10050000C3FE2146012001F0AFF8012001F0DAF826
:1005100001E0002070BD0120FCE700000800002081
:1005200008B50020009022E19748008800F00F00F5
:10053000964908700846007800287CD194480068E5
:10054000944908800846008800F0300092490880ED
:100550009048008800F440508E4908808C49096812
:100560004BF6BF7201EA020080F4005080F02000D8
:1005700040F4004141F08001854A116082480088C2
:1005800000F0100090BB1046006848F60F7108405C
:100590001146086000F000FD7D4909684BF6BF7206
:1005A00001EA02007B49098801F4805109B180F415
:1005B00080507849098801F4005109B180F4005055
:1005C0007549098801F0100109B180F010007249E5
:1005D000098801F0200109B180F0200081B241F4C6
:1005E000004141F080016A4A116008BDFFE7684898
:1005F000006880B20090BDF8000000F40060B0B365
:1006000063480068C0F30E0048F68F7108406049E7
:10061000086001F029F95E4909684BF6BF7201EAEA
:1006200002005C49098801F4805109B180F48050CE
:100630005849098800E056E001F4005109B180F4FE
:1006400000505549098801F0100109B180F01000EF
:100650005149098801F0200109B180F0200081B2E0
:1006600041F4004141F08001494A1160BDE7FFE7D4
:10067000BDF8000000F40040002878D0444800682D
:10068000C0F30E0048F68F7108404149086000F041
:10069000CFFD3F4909684BF6BF7201EA02003D49B0
:1006A000098801F4805109B180F4805039490988E2
:1006B00001F4005109B180F400503749098801F074
:1006C000100109B180F010003349098801F02001C0
:1006D00009B180F0200081B241F4004141F0800175
:1006E0002B4A116081E7294800782C4901EB8000F2
:1006F000D0F8000C80B20090BDF8000000F400407B
:10070000C0B12248007801EB8000D0F8000CC0F3A3
:100710000E0048F68F7108401C4909781F4A02EB09
:100720008101C1F8000C19490978491E1C4A52F888
:1007300021008047BDF8000000F08000B8B11348E8
:100740000078164901EB8000D0F8000C48F60F71D4
:1007500008400E490978114A02EB8101C1F8000CEA
:100760000A490978491E0F4A52F821008047084873
:100770004430006880B20449088000F4004000283A
:100780007FF4D2AE00BF30E74C00002038010020DB
:10079000005C004034010020360100200050004081
:1007A00074000020580000200B4A02EB8001D1F8B1
:1007B000001C01F4804171B102EB8001D1F8001CF2
:1007C00048F68F7211404CF280021143024B03EB4A
:1007D0008002C2F8001C7047005000400B4A02EB38
:1007E0008001D1F8001C01F0400171B102EB8001E1
:1007F000D1F8001C48F68F72114048F2C002114334
:10080000024B03EB8002C2F8001C7047005000400E
:10081000084A02EB8001D1F8001C48F68F621140B3
:1008200048F280021143034B03EB8002C2F8001C24
:10083000704700000050004010B5124909684BF69F
:100840008F7201EA020080F4005040F4004141F050
:1008500080010C4A116001200B4908700B480CA163
:1008600002680F48FFF7D4FC0D48FFF755FDC4B2EE
:1008700021460B48FFF738FE002003490870034962
:10088000086010BD0C5C0040110000201800002022
:100890004F56455252554E3A25640D0A000000004D
:1008A000600100202DE9F0472848006800F110059C
:1008B0002E8826480068077AD6B9042F18D1244814
:1008C000007801280FD100212248006880B2801CE6
:1008D000214A42F8101030202049088000BF002033
:1008E0001B49087003E0072710201C49088027E0F7
:1008F000AC88A64201D8042000E002200746B4429A
:1009000000D93446A0B2A96888478046002000F08C
:1009100017FB8146A2B24946404601F0B5FCA1B2A0
:10092000002000F0A1FE2888001B28806888204451
:10093000688030200949088000020949088000BF0A
:10094000024909680F72BDE8F08700003C010020F1
:1009500032010020505C0040006000403601002061
:10096000340100202DE9F0412848006800F110040E
:100970002688A068C0B1BEB1A588B54200D9354669
:10098000A8B2A168884707462088401B208060885D
:1009900028446080002000F0A5FA8046AAB24146B3
:1009A000384600F06DFC00BF208850B14FF4405035
:1009B000174908800021084600F056FE30201549EE
:1009C00008802088A188884204DB03200F49096839
:1009D000087218E02088002804DD05200B4909680A
:1009E000087210E0208870B906200849096808726A
:1009F00000210948006880B2801C084A42F81010A3
:100A0000302004490880BDE8F08100003C0100204E
:100A10003401002036010020505C0040006000409E
:100A20002DE9F84F9B48006845780027BA46062D07
:100A30001BD198480068007800F07F00002813D18F
:100A4000944909688878012803D193490968CF69D6
:100A50000AE0022803D1904909680F6A04E00328DC
:100A600002D18D4909684F6A94E0002D64D189480C
:100A70000068408800285FD186480068C088022846
:100A80005AD1844800680079002855D1814800680F
:100A9000007800F07F0028B97E480068808808B997
:100AA0007E4F77E07B480068007800F07F000128E7
:100AB00010D1784909684879774909688A6900211D
:100AC0009047002866D173480068807A002861D07A
:100AD000724F5FE06F480068007800F07F000228E6
:100AE00058D16C480068407900F00F0669480068EA
:100AF000407900F0700967480068407900F0800094
:100B000038B1674901EB8600D0F8000C00F03008DE
:100B100006E0634901EB8600D0F8000C00F4405871
:100B200060480078B04235D9B9F1000F32D1B8F140
:100B3000000F2FD0594F2DE0082D07D155480068E0
:100B4000007800F07F0028BB574F23E00A2D21D109
:100B500050480068007800F07F0001281AD14D4805
:100B60000068807AB0B14B480068408890B9494825
:100B70000068007970B947480068C088012809D129
:100B8000444909684879444909688A6900219047BD
:100B900000B9464F57B13F480068A0F812A03D4841
:100BA000006887610020B84700240FE0394A1268C6
:100BB0005078394A1268116988470446032C05D1D8
:100BC0000920344909680872BDE8F88F3148006887
:100BD000008A4FF6FF71884204D109202D49096827
:100BE0000872F1E7022C03D02A480068008A20B975
:100BF0000820284909680872E6E726480068007856
:100C000000F08000E0B323480068C08800902148CD
:100C10000068008A0099884204D91E490098096832
:100C2000088223E01B480068008A1A490968C988BD
:100C300088421BDA17480068008A1749096891F84A
:100C40002C10884203DA0020194908700EE0114880
:100C50000068008A1049096891F82C1090FBF1F2A5
:100C600001FB120010B90120114908700A48006800
:100C700090F82C10074800688182FFF713FE07E008
:100C8000FFE7032003490968087200030949088047
:100C900000BF99E73C01002040010020091B00082B
:100CA000005000409C0000208D1A0008DD1A00084A
:100CB000320100203401002070470000012001496A
:100CC000086070470800002010B50F48006828B180
:100CD000FFF7B2FD00200D49086010BD01200B494F
:100CE0000860032000F00EF90749086008460088F4
:100CF00082B24FF48871064800F0C2FA012005491B
:100D0000087000BFE9E70000480000200C00002048
:100D1000C80100201200002001200149087070471E
:100D200010000020014908607047000014040140D1
:100D3000002123498279002A3AD00A4612680368C2
:100D40009A430B461A600A1D126803689A430B1DEA
:100D50001A60027911440A6803681A430A60184A43
:100D60000832126803689A43154B08331A601A1D3B
:100D7000126803689A43124B0C331A604279102AA6
:100D80000ED11A1F126803681A430D4B08331A60FC
:100D90001A1D126803681A43094B0C331A600DE0E0
:100DA0000749427911440A6803681A430A6005E05A
:100DB000027911440A6803689A430A607047000088
:100DC000000401402DE9F0410246002500260020E4
:100DD00000230024002791F803C00CF00F0591F8C0
:100DE00003C00CF0100CBCF1000F03D091F802C04E
:100DF0004CEA050591F800C0BCF1000F31D0146831
:100E000000202BE04FF0010C0CFA00F3B1F800C009
:100E10000CEA03069E4220D183004FF00F0C0CFA1F
:100E200003F7BC4305FA03FC4CEA040491F803C041
:100E3000BCF1280F06D14FF0010C0CFA00FCC2F8EF
:100E400014C00AE091F803C0BCF1480F05D14FF07F
:100E5000010C0CFA00FCC2F810C0401C0828D1D3C9
:100E60001460B1F800C0BCF1FF0F34DD54680020FD
:100E70002EE000F1080C4FF0010808FA0CF3B1F86D
:100E800000C00CEA03069E4221D183004FF00F0CF4
:100E90000CFA03F7BC4305FA03FC4CEA040491F88E
:100EA00003C0BCF1280F05D100F1080C08FA0CF8BA
:100EB000C2F8148091F803C0BCF1480F07D100F1CB
:100EC000080C4FF0010808FA0CF8C2F81080401C1A
:100ED0000828CED35460BDE8F081416170470161BC
:100EE0007047000001460548006880B200EBC10071
:100EF000001D034A32F8100080B27047505C004079
:100F00000060004001460648006880B200EBC10066
:100F1000801D044A32F81000C0F309007047000039
:100F2000505C0040006000400146044A02EB810032
:100F3000D0F8000C00F44050704700000050004012
:100F400001460548006880B200EBC100034A32F850
:100F5000100080B270470000505C0040006000400C
:100F600070B50A480468001D0568001D0668344411
:100F700054B108220649204600F046F804220449EC
:100F80001031284600F040F870BD0000E8F7FF1F60
:100F90002E00002000BFFEE710B518480068047A54
:100FA000022C01D0042C05D1FFF77CFC134800680B
:100FB000047A1CE0062C19D11048006840780528F6
:100FC0000ED10E480068007800F07F0040B90B4950
:100FD0000968C87800F09EFA09490968086A8047DC
:100FE0000849096888688047082400E00824034904
:100FF00009680C7200F05AF910BD00003C01002095
:10100000480100204001002030B50B46002100BF00
:1010100016E00A24B4EB107F05D9302404EB1074D9
:1010200003F8114005E0412404EB10740A3C03F876
:101030001140000100254C00641C1D554C1CE1B200
:101040009142E6DB30BD000010B5064CA07A18B125
:1010500005200549086002E001200349086000F00E
:101060007FFF10BD280200202401002000BFFEE702
:101070007047704770B5002100230F22C47804B375
:10108000154C246804F4E064C4F5E064210AC1F15D
:101090000403CA40447804FA03F1847814402143DD
:1010A00009010E4C0678A155047804F01F050124AF
:1010B000AC4005786D11AD0005F1E025C5F80041A3
:1010C00009E0047804F01F050124AC40044D0678C3
:1010D000761145F8264070BD0CED00E000E400E01C
:1010E00080E100E002490143024A116070470000BC
:1010F0000000FA050CED00E070B5022647480068D4
:10110000447846480068007800F07F00002844D109
:10111000092C03D100F078FD06465FE0052C14D1C0
:101120003E480068C0787F280BDC3C480068807827
:1011300038B93A480068808818B938480068807A19
:1011400008B1082565E0002648E0032C0ED133489D
:101150000068C078012807D130480068808818B935
:1011600000F076FD064639E0022637E0012C35D145
:101170002A480068C07801280DD128480068808876
:1011800048B926480068407A00F0200018B100F005
:10119000C7FB064622E0022620E0204800680078CF
:1011A00000F07F00012805D10B2C17D100F0CCFDF9
:1011B000064613E019480068007800F07F00022816
:1011C0000BD1012C03D100F0ABFB064606E0032C4B
:1011D00004D100F051FD064600E002264EB1E0B217
:1011E0000F4A1268516988470646032E01D1092526
:1011F0000FE00EB108250CE0062500210948006823
:1012000080B2801C084A42F810103020074908803C
:1012100000BF024909680D7270BD00003C0100204A
:1012200040010020505C004000600040360100207A
:1012300010B511480068047A022C01D0042C01D1A9
:10124000082412E0032C01D0052C05D1FFF78AFBFE
:1012500009480068047A08E0072C05D107490968A5
:10126000C8688047082400E00824034909680C7214
:1012700000F01CF810BD00003C01002040010020DF
:10128000F0B5561C7510074E06EB41042B4605E0E1
:1012900034F8047B20F8017B401C5B1E002BF7D147
:1012A000F0BD0000006000407047000010B50D4820
:1012B00090F82C10002000F067F90B480068007AC5
:1012C000082805D1400209490880102008490880F3
:1012D00005480068007A092801D1012010BD0020CE
:1012E000FCE70000A00000203C01002034010020A9
:1012F0003601002010B5012000F068FE01240B48E3
:10130000046000200A4908800846008807490860F0
:101310000020091D08604FF4E05005490880084688
:10132000008802490860002010BD0000405C0040B9
:101330004601002029B1064AD2690243044BDA6112
:1013400004E0034AD2698243014BDA61704700002E
:101350000010024029B1064A92690243044B9A6187
:1013600004E0034A92698243014B9A61704700008E
:10137000001002400149086070470000D800424256
:1013800070B50546072D01D02E4805702D48007810
:1013900008284ED2DFE800F004111A202B384E4FF7
:1013A0002948006828B900F053F80620254908703C
:1013B00002E005202349087041E000F049F80420CC
:1013C0002049087001202049086038E002201D49AA
:1013D00048700320087032E01A484078401E1949CE
:1013E00048700846407808B90420087027E017487C
:1013F000006884B244F010041448046005201149C8
:1014000008700A2048701AE00E484078401E0D49C6
:1014100048700846407858B90C48006884B224F0F7
:1014200010040A480460062008700020064908607D
:1014300005E000BF00BF06200249087000BF00BFE2
:1014400070BD0000290100202C010020405C0040FC
:1014500010B50748006884B224F00404044804600E
:10146000FFF7F2FD4FF47F400149086010BD000016
:10147000405C00400549096888B200F00F0103296B
:1014800002D10121024A117070470000445C004003
:101490001300002021B1028842F40052028004E0CF
:1014A00002884DF6FF731A400280704721B102880E
:1014B00042F04002028004E002884FF6BF731A40F7
:1014C0000280704710B50022028802F441520B8856
:1014D0004C8823438C882343CC8823430C892343A3
:1014E0004C8923438C892343CC8923431A430280AC
:1014F000838B4FF2FF74234083830B8A038210BDDA
:10150000704700004FF6F8710140014A11607047C2
:10151000505C004030B501460F4B1A78002014E0B3
:1015200003060E4C04EB9353D3F8003C48F68F743B
:10153000234048F280042343C4B223430406074DEA
:1015400005EB9454C4F8003C401C9042E8D341F0B1
:101550008003034C236030BD9C00002000500040FD
:101560004C5C004010B54A105300054A126892B214
:1015700002EBC002121D034C44F8123010BD0000F3
:10158000505C00400060004010B502460F48006803
:1015900080B200EBC200801D0D4C04EB40033E29DD
:1015A0000BDD481101F01F040CB9441EA0B24FF42A
:1015B000004444EA80241C6007E0481001F0010464
:1015C0000CB1441CA0B284021C6010BD505C0040F1
:1015D0000060004030B50E4C04EB8003D3F8003CB3
:1015E0004BF68F7403EA040201F480530BB182F4CA
:1015F000805201F400530BB182F4005242F40043D4
:1016000043F08003024D05EB8004C4F8003C30BD7C
:101610000050004010B50B4B03EB8002D2F8002CB9
:101620004BF68F7302EA030181F4805181F400517B
:1016300041F4004242F08002024C04EB8003C3F804
:10164000002C10BD0050004010B54A105200044B51
:101650001B689BB203EBC003024C44F8132010BD7F
:10166000505C004000600040044A126892B202EBF5
:10167000C002921C024B43F812107047505C0040AD
:101680000060004030B50E4C04EB8003D3F8003C02
:1016900048F6BF7403EA040201F010030BB182F0B4
:1016A000100201F020030BB182F0200242F400434B
:1016B00043F08003024D05EB8004C4F8003C30BDCC
:1016C0000050004010B50B4B03EB8002D2F8002C09
:1016D00048F6BF7302EA030181F0100181F0200196
:1016E00041F4004242F08002024C04EB8003C3F854
:1016F000002C10BD0050004010B5074B03EB8002DA
:10170000D2F8002C48F68F131A400A43024C04EB1F
:101710008003C3F8002C10BD0050004010B500F04D
:1017200001F810BD0CB5002001900090334800680E
:1017300040F480303149086000BF3048006800F450
:10174000003000900198401C0190009818B9019851
:10175000B0F5A06FF1D12948006800F4003010B155
:101760000120009001E0002000900098012843D162
:101770002348006840F010002149086008460068CE
:1017800020F0030008600846006840F0020008608E
:101790001A48406819494860084640684860084649
:1017A000406840F4806048600846406820F47C103F
:1017B00048600846406840F4E81048600846006801
:1017C00040F08070086000BF0C48006800F00070B6
:1017D0000028F9D00948406820F003000749486014
:1017E0000846406840F00200486000BF0348406877
:1017F00000F00C000828F9D10CBD000000100240D8
:101800000020024008B501212020FFF7A3FD4FF47E
:101810000070ADF8000003208DF8020014208DF850
:10182000030069460948FFF7CDFA4FF48020FFF71F
:1018300079FA4FF480200649086008204871012099
:1018400088710846FFF774FA08BD000000140140D3
:101850002000002010B50020FFF78CFD0121C805F5
:10186000FFF768FD10BD000038B501242948006865
:1018700080B2001D284931F8100080B201EB400011
:10188000009026480068007A092832D00098007835
:101890002249096808700098401C00900098007860
:1018A0001E49096848700098401C0090009800EBA1
:1018B00044000090009931F8020B0091FEF701FE00
:1018C000164909684880009800EB44000090009990
:1018D00031F8020B0091FEF7F4FD10490968888089
:1018E000009800EB44000090009800880B490968BC
:1018F000C880012009490968087208480068C08842
:1019000010B9FFF7F9FB01E0FFF78AF8FFF7CEFC0B
:1019100038BD0000505C0040006000403C010020E9
:101920002DE9F04754480068007800F07F08B8F1CE
:10193000000F0AD150480068407A00F0DF004E499D
:10194000096848720020BDE8F087B8F1020F7CD129
:1019500049480068408818B947480068007908B1CC
:101960000220F0E7DFF8149143480068477927F038
:1019700080052C4640480068407900F0800038B16E
:101980003F4901EB8400D0F8000C00F0300606E07F
:101990003B4901EB8400D0F8000C00F4405699F864
:1019A0000000A84204D91EB133480068807A08B903
:1019B0000220C8E707F0800080B1314901EB8400C4
:1019C000D0F8000C00F0300010284BD1E0B2FEF748
:1019D00005FFE0B23021FFF755FE43E0284901EB57
:1019E0008400D0F8000C00F44050B0F5805F39D18D
:1019F000E4B9244A92F82C10E0B2FFF7C5FD204A62
:101A000002EB8401D1F8001C4BF68F7201EA020050
:101A100080F4805080F4005040F4004141F0800197
:101A2000174B03EB8402C2F8001C1BE0E0B2FEF788
:101A3000BBFE134A02EB8401D1F8001C4BF68F72F7
:101A400001EA020080F4805000E011E080F40050D0
:101A500040F4004141F08001094B03EB8402C2F8DD
:101A6000001C00BF084909684869804700206AE7F0
:101A700000BF022067E700003C0100209C0000201E
:101A800000500040A00000204801002010B504468E
:101A90002CB90120064909680882002010BD0549BB
:101AA000096808688047024800680A30F6E70000C5
:101AB0003C0100204801002010B50246064800689D
:101AC000438A32B98888C01A034C246820820020D7
:101AD00010BD08681844FBE73C01002010B504461F
:101AE0002CB90120064909680882002010BD05496B
:101AF000096888688047024800680C30F6E70000F3
:101B00003C0100204801002010B504462CB90220F9
:101B1000394909680882002010BD00203749088033
:101B200035480068007800F07F0018BB324909682A
:101B3000487A00F0200131B13049097841F00201C2
:101B40002E4A117005E02D49097801F0FD012B4A5C
:101B5000117000F0400131B12849097841F00101CC
:101B6000264A117005E02549097801F0FE01234A53
:101B700011703AE020480068007800F07F000128EA
:101B800001D11E48C8E71C480068007800F07F00BB
:101B9000022828D1184A1268517901F00F0001F08B
:101BA00080027AB1164B03EB8002D2F8002C02F0CF
:101BB0003002102A16D1114A127842F001020F4B5E
:101BC0001A700FE00E4B03EB8002D2F8002C02F4E7
:101BD0004052B2F5805F05D1084A127842F0010206
:101BE000064B1A7001E0002096E70649096808696B
:101BF0008047024890E700003C01002030010020AF
:101C0000005000404801002010B50E480068C07820
:101C10000D494978884213DC0A480068807878B911
:101C200008480068808858B906480068C0780549A7
:101C3000096888720549096848688047002010BD16
:101C40000220FCE73C0100209C000020480100200D
:101C500010B507480068407A40F020000449096840
:101C6000487204490968C8698047002010BD000017
:101C70003C010020480100202DE9F0412E48006879
:101C8000467926F080073C462B480068407900F0F2
:101C9000800038B1294901EB8400D0F8000C00F035
:101CA000300506E0254901EB8400D0F8000C00F473
:101CB000405523480078A04208D91F480068408852
:101CC00020B91DB11C480068807A10B90220BDE817
:101CD000F08106F08000A0B1184A02EB8401D1F82F
:101CE000001C48F6BF7201EA020080F0100040F4C8
:101CF000004141F08001114B03EB8402C2F8001C4B
:101D000014E00E4A02EB8401D1F8001C4BF68F72EE
:101D100001EA020080F4805040F4004141F080016B
:101D2000064B03EB8402C2F8001C00BF054909689A
:101D3000886980470020CAE73C010020005000402D
:101D40009C0000204801002010B5174B1B68D97873
:101D5000154B1B685879154B1B689A6990470446C8
:101D600011480068807AE8B13CB90F4800680079F2
:101D700018B90D480068807808B1022010BD8CB9F0
:101D80000B490968C86880470748006840790649D8
:101D90000968C87204480068C07803490968087374
:101DA0000020EBE70220E9E73C0100204001002091
:101DB0004801002038B50021002200230093394B50
:101DC0001B6898B200BF09E0374C04EB8103D3F8DD
:101DD000003C9BB2354C44F82130491C0829F3D310
:101DE00040F480602F4B186040F00100186020F034
:101DF0000100186000BF2B4B1B1D1B6803F48063A0
:101E0000002BF8D04FF6FF33264C241D2360002111
:101E100009E0264B53F821309BB2234D05EB81049A
:101E2000C4F8003C491C0829F3D340F008001D4BBE
:101E300018601B6898B240F004001A4B18601C4BE5
:101E40001B6800931A4B1A6822F0030242F0010249
:101E50001A60184B1B6843F00403164C2360114BA7
:101E60001B1D1B6803F4805333B930BF23461B6826
:101E700023F00403236014E04EF6FF73094C241D85
:101E80002360231F1B6898B220F00800231F1860EE
:101E9000074C009B2360074B1B6823F00403054C91
:101EA000236038BD405C0040005000400802002024
:101EB0000070004010ED00E07047000010B50021F8
:101EC00000200022214B5B6803F00C0121B10429A2
:101ED00006D0082928D107E01D4B1E4C236027E0BF
:101EE0001B4B1C4C236023E0184B5B6803F4701001
:101EF000164B5B6803F48032022303EB904022B957
:101F0000154B4343134C23600DE0104B5B6803F407
:101F1000003323B1104B43430E4C236003E00C4BC2
:101F200043430C4C236003E0094B0A4C236000BF81
:101F300000BF064B5B68C3F30313084CE15C054B21
:101F40001B68CB40034C236010BD00000010024012
:101F500000127A004C01002000093D0050010020D1
:101F600010B51348006840F00100114908600846A8
:101F70004068104908400E494860084600680E490C
:101F800008400B4908600846006820F4802008607B
:101F90000846406820F4FE0048604FF41F00886047
:101FA000FFF7BCFB4FF000600449086010BD000063
:101FB000001002400000FFF8FFFFF6FE08ED00E011
:101FC00010B54FF48020FEF7ADFE10BD10B50446ED
:101FD0002CB14FF400710548FEF77FFF04E04FF489
:101FE00000710248FEF77BFF10BD000000140140A5
:101FF00010B50848084908600220096808720748B7
:1020000007490860074808490860054909680868E1
:10201000804710BD280200203C010020A0000020C5
:1020200040010020D00000204801002008B54FF4F6
:10203000A060FFF757F814208DF8000002208DF8FB
:10204000010000208DF8020001208DF80300684691
:10205000FFF710F82A208DF8000001208DF801000C
:102060006846FFF707F808BD10B588B0002471482E
:102070000068714908800846008800F400706F49C4
:102080000988084050B14FF6FF506A4908606C4813
:102090000078401C6A490870FFF7ECF96648008830
:1020A00000F4004065490988084008B1FEF738FA95
:1020B0006148008800F4806060490988084030B1B8
:1020C0004FF6FF305B4908605E49486880475A48D0
:1020D000008800F4804059490988084028B14BF62F
:1020E000FF7054490860FEF7A7FB5348008800F4CE
:1020F000005052490988084028B14DF6FF704D49FB
:102100000860FEF709FE4C48008800F480504B49F7
:102110000988084030B14EF6FF704649086000203B
:10212000FFF72EF94448008800F40060434909880D
:10213000084060B14448007810B1FFF73BFE02E070
:102140000220FFF71DF94FF2FF703A4908603A4844
:10215000008800F48070394909880840002866D05A
:102160004FF6FF6033490860081D006800F4004026
:10217000002856D035480068401C3449086008469D
:102180000068032850D92B48001F006800F00800A1
:10219000002849D12748001F006880B22C490860F8
:1021A000002408E02B4901EB8400D0F8000C80B239
:1021B0004DF82400641C082CF4D32548006840F036
:1021C0000100234908600846006880B21949091FC8
:1021D00008601F48006820F001001D49086008469B
:1021E000006880B21349091F086000BF11480068E9
:1021F00000F480600028F9D04FF6FF300D490860E8
:10220000002408E05DF8240080B2124A02EB840149
:10221000C1F8000C641C082CF4D300200B490860A2
:1022200002E00020094908600720FFF7A9F808B07C
:1022300010BD0000445C00404C000020460100201E
:102240004E000020A00000202801002050000020A7
:10225000540000200050004010B5FFF705FF10BDEE
:102260000020064908604FF47F4005490880084671
:1022700000880249091F086000207047445C004044
:102280004601002000BFFEE7F0B5144604F1010C42
:102290004FEA6C07DFF824C00CEB41033D460AE02F
:1022A0000678401C90F800C046EA0C2223F8022B66
:1022B0009B1C401C6D1E002DF2D1F0BD0060004043
:1022C00070B504460025212C08D11248006800781A
:1022D00000F07F0021280ED10F4D0CE0202C0AD1F8
:1022E0000C480068007800F07F00212800D10B4DD9
:1022F00020200B4908700DB9022070BD0548006808
:10230000856100210348006841820020A847002021
:10231000F3E700003C0100204D230008DD24000805
:102320009000002010B5044602492046FFF7C4FB88
:1023300010BD0000FC00002010B5044602492046F4
:10234000FFF7BAFB10BD0000F4000020014629B9D8
:102350000820034A12681082002070470148FCE7F9
:102360003C0100209400002070B505460648006836
:10237000C478042C01DD002070BD044800EBC401CA
:102380002846FFF799FBF7E73C01002004010020F5
:102390000246002901DD02207047012A01DD0220EA
:1023A000FAE70020F8E700000146084800680078D6
:1023B00000F07F00212807D1022901D100207047B9
:1023C000222901D10020FAE70220F8E73C01002091
:1023D00010B500203449096888723448C079324900
:1023E00009684872002030490968C872FFF78AF806
:1023F0004FF400710020FFF77FF910210020FFF754
:1024000041F940210020FFF7ADF880210020FFF7BF
:102410001BF90020FEF7FCF9254890F82C1000204D
:10242000FFF7B2F80020FFF7F5F800210120FFF7D1
:1024300063F9C0210120FFF707F920210120FFF7F0
:1024400021F900210120FFF7C5F84FF4C0610220F7
:10245000FFF752F94FF480710220FFF7F5F80021E1
:102460000220FFF7B7F820210220FFF70BF9002127
:102470000320FFF741F94FF488710320FFF772F84A
:1024800040210320FFF780F84FF440510320FFF76D
:10249000A1F800210320FFF7F5F80020FFF73AF834
:1024A00001200449086010BD3C010020F62B000803
:1024B000A0000020240100200348817A11B10521E9
:1024C000024A116070470000280200202401002009
:1024D000042001490860704724010020014629B901
:1024E0000820034A12681082002070470148FCE768
:1024F0003C0100209400002003480078202802D1ED
:1025000000200149087070479000002070470000CB
:1025100010B5FEF725FD0020054909688872FEF711
:10252000E9FEFFF79DFE00200249086010BD000093
:102530003C010020240100202DE9F041FFF7BEFC02
:102540000748006800F0E7FA06460022054B00F055
:102550005DF9044600F0B2FA03490870BDE8F08165
:102560004C01002060E3564100000020FFF7F8FC1A
:10257000FFF748F9FFF76EF9FFF758FDFFF738FD51
:10258000FFF7DAFF00F0B6F800254FF400513348AA
:10259000FEF7A5FC0320FEF7C7FC5DE030480068AD
:1025A000052859D10320FEF7BFFCFDF791FF2D4808
:1025B0000068002836D02B480068402804D200204C
:1025C0002949284A1268885428480068254909681A
:1025D00008442649086026A1234800F05DF8044617
:1025E00004B1012523480078C0B110212248FEF72C
:1025F00074FC002307E01C49C85C00F0E9F81F499F
:102600000870581CC3B2174800688342F3D31021E6
:102610001948FEF764FC0020164908700020114993
:10262000086019E0C5B1114815A102681848FDF706
:10263000EFFD00BF174800680028FBD01448FDF7E5
:102640006BFEC4B221461248FDF74EFF0020074939
:102650000860002504490870A0E700000010014050
:102660002401002048000020C8010020180000209C
:102670002A00000012000020000801401400002081
:1026800042595445535F53454E543A25640D0A0050
:1026900060010020080000202DE9F04705460E46A5
:1026A00000240027A0463046FDF736FE00F0FF0963
:1026B00019E0285DF15D884212D103E0601CC4B2CC
:1026C000781CC7B2285DF15D884202D1285D0028E0
:1026D000F4D14F4506D108F1010000F0FF0801E0F8
:1026E000601CC4B20027285D0028E2D14046BDE846
:1026F000F087000000B587B001211420FEF72AFE04
:1027000001210803FEF726FE4FF40050ADF8040047
:1027100010208DF8070003208DF8060001A9294834
:10272000FEF750FB1020ADF804008DF807000320E1
:102730008DF8060001A92448FEF744FB4020ADF8BF
:1027400004001C208DF8070001A91F48FEF73AFB82
:10275000A020ADF8040018208DF8070003208DF8A4
:10276000060001A91848FEF72DFB0020ADF808006F
:102770004FF48270ADF80A000020ADF80C00ADF8FF
:102780000E00ADF810004FF40070ADF812000020FC
:10279000ADF816002020ADF8140002A90B48FEF792
:1027A00091FE00210948FEF775FE0848808840F038
:1027B00004000649888001210448FEF777FE07B02F
:1027C00000BD000000100140000801400030014041
:1027D000014600BF0C4A128902F00202002AF9D019
:1027E000094A918100BF084A128902F00102002AB9
:1027F000F9D0054A9289D0B200BF034A128902F08B
:102800008002002AF9D17047003001402DE9C04113
:1028100030B4DFF8A0C23CEA111418BF3CEA13142C
:1028200000F0EC8081EA03051CEA111444EAD57437
:1028300018BF1CEA131500F0C780A4EB05044FF085
:10284000004545EAC12145EAC32341EA505143EA24
:10285000525304F17F74994204F500344FEAC020CA
:102860004FEAC22208BF904200F09C804FEA1365F5
:102870000FF24016765D4FEA134506FB05F7C7F1E8
:10288000807706FB07F74FEAD737A7FB0368764246
:10289000C8F58038A7FB06CE38BFA8F1010807FBB2
:1028A00008E64FF0000EA6FB028CE6FB03CEDCF13F
:1028B000000CCEF1004E38BFAEF1010EA6FB0C5855
:1028C0004FF000074FF00005E6FB0E87A1FB08C69E
:1028D000A0FB07CE16EB0E0645F10005E1FB0765F0
:1028E00015F1E04E7EBFA4F580345FEA46066D41E7
:1028F00016F1800745F100054FEA17274FEA0666F3
:1029000047EA0567A6F1DE46B6F1805F4FEA152576
:102910001FD9384624F0010C05EBC471BCF1FE6FE1
:1029200001EB0C1102D8F0BCBDE8008124425CBF71
:1029300001F5801E9EEAC47F02D4F0BCBDE8008190
:10294000244238D4F0BCA1F1C041BDE8004100F000
:1029500043B94FEAD22242EA43524FEAD323A7FBBC
:1029600002864FEAD02040EA415007FB03661EEA88
:102970000E0F4FEAD12105FB026658BFA6EB0056A9
:10298000B6EB00564FEA520E4EEAC37E18EB0E0E1F
:1029900056EB530EBDD518EB02085E417F1C55F176
:1029A0000005B6E74FF480154FF000074FF0000622
:1029B0004FF00008ADE7F0BC4FF0000001F1C0415E
:1029C00001F00041BDE8008111EA0C1F0CEA13156B
:1029D00000D00CE013EA0C1F00F025804FF000003F
:1029E000F0BC81EA030101F00041BDE80081F0BCC8
:1029F000BDE8004181EA030100F0EEB8F0BCBDE89B
:102A0000004170B500F09AF8097EFC3E00F007B86E
:102A100081EA03014FF0000001F00041704781EAB4
:102A2000030100F0D9B8F0BCBDE800414FF0000050
:102A300021497047FFFDFBF9F7F5F4F2F0EEEDEBFD
:102A4000E9E8E6E4E3E1E0DEDDDBDAD8D7D5D4D3AC
:102A5000D1D0CFCDCCCBCAC8C7C6C5C4C2C1C0BFF8
:102A6000BEBDBCBBBAB9B8B7B6B5B4B3B2B1B0AFFE
:102A7000AEADACABAAA9A8A8A7A6A5A4A3A3A2A1E2
:102A8000A09F9F9E9D9C9C9B9A999998979796959D
:102A900095949393929191908F8F8E8E8D8C8C8B39
:102AA0008B8A8989888887878685858484838382C1
:102AB000828181800000FF070000F87F4FEA1153F8
:102AC000A3F58063D3F11E03A8BFD3F1200C08DB6C
:102AD0004FF0004242EAC12252EA505232FA03F069
:102AE000704709420BD4102BC4BF0020704703F578
:102AF000787CBCF1FF3F05D04FF0FF3070474FF0BE
:102B00000000704770B500F019F800BF49922480AA
:102B100000207047F0E7B0FA80F310FA03F10AD012
:102B2000C3F11D0303F580634FEA41504FEA03529E
:102B300002EBD12170474FF0000070470EF1020EFA
:102B40002EF0030E5EF8046B364205D4012A43EBE7
:102B5000030515F5001F12D8012841EB010C1CF5E7
:102B6000001F0CD80ED14FEAD17C15F5001F0CEBDD
:102B70004C0C0CF1020C08BF4CEBD37C04E04FF082
:102B8000080C01E04FEAD37C0CEB4C0526FA05F665
:102B900006F00706B6F1040C06D20EEB860CBDE873
:102BA00070404CF0010C6047DFE80CF0090B0202AA
:102BB0004FF000414FF00000A1F5002170BD194613
:102BC0001046012851EB010418BFD4F5001484BF4E
:102BD000002001F0004170BD0808A0F500114FEA87
:102BE0003101704712010002020000408304405787
:102BF00000020102030109024300020100C0320980
:102C00000400000102020100052400100105240156
:102C100000010424020205240600010705820308BE
:102C200000FF09040100020A00000007050302403A
:102C30000000070581024000000403090426035335
:102C40000054004D006900630072006F0065006C65
:102C50000065006300740072006F006E006900631D
:102C60000073003203530054004D00330032002043
:102C7000005600690072007400750061006C00204D
:102C80000043004F004D00200050006F00720074A0
:102C90000020002000000000B82C000800000020E8
:102CA0006001000028010008482D00086001002094
:102CB0004807000084010008815A0104011C141A0D
:102CC00003531254124D123302213213BD0C0C1C4B
:102CD000087310040A11C9244143802512081A04FC
:102CE000911311251408D1231408F9241B080D0C85
:102CF00013C1221B08A9101A91041A39041A2504B9
:102D00001A690441324029441AB92C0916741AD19F
:102D10001C13E42B3308121AF608324313392C33F0
:102D200008041A3D0832261A630829E2222C73206F
:102D30001A198B01222BA24A4749300008000203CE
:082D4000040607080900000069
:04000005080000ED02
:00000001FF
